S00F00006C616261385F312E73726563BD
S11300000C945A000C9464000C9464000C946400E6
S11300100C9464000C9464000C9464000C946400CC
S11300200C9464000C9464000C9464000C946400BC
S11300300C9464000C9466000C9464000C946400AA
S11300400C9464000C9464000C9464000C9464009C
S11300500C9464000C9464000C9464000C9464008C
S11300600C9464000C9464000C9464000C9464007C
S11300700C9464000C9464000C9464000C9464006C
S11300800C9464000C9464000C9464000C9464005C
S11300900C9464000C9464000C9464000C9464004C
S11300A00C9464000C9464000C9464000C9464003C
S11300B00C94640011241FBECFEFD8E0DEBFCDBF87
S11300C00E9478000C9484000C9400001F920F92FC
S11300D00FB60F9211248F939F9395B180E28927D5
S11300E085B99F918F910F900FBE0F901F90189517
S11300F080E284B91092800083E08093810081E0E3
S10F010080936F007894FFCFF894FFCF39
S9030000FC
