S00F00006C616261375F362E73726563B9
S11300000C945A000C9464000C9464000C946400E6
S11300100C9464000C9464000C9464000C946400CC
S11300200C9464000C9464000C9464000C946400BC
S11300300C9464000C9464000C9464000C946400AC
S11300400C9464000C9464000C9464000C9464009C
S11300500C9464000C9466000C9464000C9464008A
S11300600C9464000C9464000C9464000C9464007C
S11300700C9464000C9464000C9464000C9464006C
S11300800C9464000C9464000C9464000C9464005C
S11300900C9464000C9464000C9464000C9464004C
S11300A00C9464000C9464000C9464000C9464003C
S11300B00C94640011241FBECFEFD8E0DEBFCDBF87
S11300C00E94B4000C94C4000C9400001F920F9280
S11300D00FB60F9211242F938F939F93EF93FF9357
S11300E0E8E7F0E080818081853118F415B883E079
S11300F08BB9E8E7F0E09081208181E0953108F444
S113010080E0882351F081E0253608F080E08823E0
S113011021F080E285B983E08BB9E8E7F0E09081D3
S1130120208181E0953608F480E0882351F081E055
S1130130253B08F080E0882321F080E285B982E045
S11301408BB9E8E7F0E080818081853B18F080E29C
S113015085B91BB8FF91EF919F918F912F910F90CB
S11301600FBE0F901F901895ECE7F0E0808180643B
S11301708083EAE7F0E080818F6C808380E284B939
S10F01808FEF8AB97894FFCFF894FFCF7A
S9030000FC
