S00F00006C616261385F352E73726563B9
S11300000C945A000C946C000C946C000C946C00CE
S11300100C946C000C946C000C946C000C946C00AC
S11300200C946C000C946C000C946C000C946E009A
S11300300C946C000C946C000C946C000C946C008C
S11300400C946C000C946C000C946C000C946C007C
S11300500C946C000C946C000C946C000C946C006C
S11300600C946C000C946C000C946C000C946C005C
S11300700C946C000C946C000C946C000C946C004C
S11300800C946C000C946C000C946C000C946C003C
S11300900C946C000C946C000C946C000C946C002C
S11300A00C946C000C946C000C946C000C946C001C
S11300B00C946C0011241FBECFEFD8E0DEBFCDBF7F
S11300C021E0A0E0B1E001C01D92A330B207E1F746
S11300D00E94A7000C94BB000C9400001F920F9286
S11300E00FB60F9211248F939F93809100018F5F1D
S11300F080930001909101019F5F90930101909181
S113010002019F5F909302018F3031F49BB181E033
S113011089278BB91092000180910101863031F456
S11301209BB182E089278BB9109201018091020171
S1130130843131F495B180E2892785B910920201A6
S11301409F918F910F900FBE0F901F90189580E292
S113015084B983E08AB990EC909380009CE09093FA
S1130160810080936F0088E1809389008AE6809300
S10D017088007894FFCFF894FFCFC5
S9030000FC
