:100000000C945A000C946C000C946C000C946C00D2
:100010000C946C000C946C000C946C000C946C00B0
:100020000C946C000C946C000C947F000C946C008D
:100030000C946C000C946E000C946C000C946C008E
:100040000C946C000C946C000C946C000C946C0080
:100050000C946C000C940A010C946C000C946C00D1
:100060000C946C000C946C000C946C000C946C0060
:100070000C946C000C946C000C946C000C946C0050
:100080000C946C000C946C000C946C000C946C0040
:100090000C946C000C946C000C946C000C946C0030
:1000A0000C946C000C946C000C946C000C946C0020
:1000B0000C946C0011241FBECFEFD8E0DEBFCDBF83
:1000C00021E0A0E0B1E001C01D92A131B207E1F74B
:1000D0000E9446010C9472010C9400001F920F9232
:1000E0000FB60F9211248F93809106018F5F80933A
:1000F00006018F910F900FBE0F901F9018951F92C1
:100100000F920FB60F9211242F933F934F935F934B
:100110006F937F938F939F93AF93BF93EF93FF93CF
:1001200080910E01882321F0813009F440C061C024
:1001300080910D01882319F0813079F05AC08091A7
:1001400086009091870090930C0180930B01109290
:10015000060181E080930D014CC020918600309112
:1001600087003093100120930F018091060190E0E9
:10017000A0E0B0E0DC019927882740910B01509165
:100180000C01841B950BA109B109820F931FA11DBE
:10019000B11D8093070190930801A0930901B093CA
:1001A0000A0110920D0181E080930E0122C020917E
:1001B0000701309108014091090150910A0160E066
:1001C00074E284EF90E00E9450012093000130938C
:1001D0000101409302015093030110920E01CA01E4
:1001E000B90128EE33E040E050E00E945001209336
:1001F000C600FF91EF91BF91AF919F918F917F9139
:100200006F915F914F913F912F910F900FBE0F9083
:100210001F9018951F920F920FB60F9211248F9373
:100220008091790087BD8F910F900FBE0F901F9026
:10023000189580E48AB984B5836484BD85B58B60E4
:1002400085BD17BC089587E690E09093C500809324
:10025000C400E2ECF0E0808186608083E1ECF0E0B5
:10026000808188608083089580E680937C008FEE93
:1002700080937A000895E1E8F0E0808181648083D2
:10028000EFE6F0E080818162808308950E94190189
:100290000E9423010E9434010E943B017894FFCF09
:1002A000A1E21A2EAA1BBB1BFD010DC0AA1FBB1F7A
:1002B000EE1FFF1FA217B307E407F50720F0A21BEC
:1002C000B30BE40BF50B661F771F881F991F1A9459
:1002D00069F760957095809590959B01AC01BD0183
:0802E000CF010895F894FFCF4F
:00000001FF
