S00D00006C616261362E7372656351
S11300000C945A000C9477000C9477000C947700AD
S11300100C9477000C9477000C9477000C94770080
S11300200C9477000C9477000C9477000C94770070
S11300300C9477000C9477000C9477000C94770060
S11300400C9477000C9477000C9477000C94770050
S11300500C9479000C9477000C9477000C9477003E
S11300600C9477000C9477000C9477000C94770030
S11300700C9477000C9477000C9477000C94770020
S11300800C9477000C9477000C9477000C94770010
S11300900C9477000C9477000C9477000C94770000
S11300A00C9477000C9477000C9477000C947700F0
S11300B00C94770011241FBECFEFD8E0DEBFCDBF74
S11300C011E0A0E0B1E0ECE9F1E002C005900D928E
S11300D0A831B107D9F721E0A8E1B1E001C01D9230
S11300E0A931B207E1F70E94B8000C94CC000C943B
S11300F000001F920F920FB60F9211242F933F937B
S11301008F939F93EF93FF9380911801E0E0F1E0C8
S113011001900020E9F73197E050F140282F30E0BA
S1130120E217F307C0F091E0980F90931801F901DA
S1130130E050FF4F80818093C600E0E0F1E0019041
S11301400020E9F73197E050F1408091180190E0E8
S11301508E179F0710F010921801FF91EF919F9155
S11301608F913F912F910F900FBE0F901F90189574
S113017087E690E09093C5008093C400E1ECF0E042
S1130180808188648083E2ECF0E0808186608083F3
S10F019078941092C600FFCFF894FFCFC3
S113019C41746D656761333238503A5265616479E4
S10B01AC546F576F726B0A00D7
S9030000FC
