S01500006C6162615F74776F5F666F75722E73726563AB
S11300000C945A000C946C000C946C000C946C00CE
S11300100C946C000C946C000C946C000C946C00AC
S11300200C946C000C946C000C946C000C946E009A
S11300300C946C000C946C000C946C000C946C008C
S11300400C946C000C946C000C946C000C946C007C
S11300500C946C000C946C000C946C000C946C006C
S11300600C946C000C946C000C946C000C946C005C
S11300700C946C000C946C000C946C000C946C004C
S11300800C946C000C946C000C946C000C946C003C
S11300900C946C000C946C000C946C000C946C002C
S11300A00C946C000C946C000C946C000C946C001C
S11300B00C946C0011241FBECFEFD8E0DEBFCDBF7F
S11300C021E0A0E0B1E001C01D92A230B207E1F747
S11300D00E94B3000C94D6000C9400001F920F925F
S11300E00FB60F9211248F939F939BB181E08927C0
S11300F08BB98091000190910101009751F48EEF2A
S11301008093B40081E090E090930101809300011A
S113011023C08130910551F480E18093B40082E0E2
S113012090E0909301018093000116C08230910504
S113013051F488E18093B40083E090E0909301014E
S11301408093000109C0039739F480E28093B400DE
S113015010920101109200019F918F910F900FBE98
S11301600F901F9018959FEF9AB9E0E8F0E0808116
S1130170806C8083E1E8F0E080818D608083EFE62D
S1130180F0E080818260808328EF3AE23093890036
S113019020938800E0EBF0E08081836A80838FE025
S11301A08093B1009093B3007894FFCFF894FFCF7D
S9030000FC
