:100000000C945A000C946C000C946C000C946C00D2
:100010000C946C000C946C000C946C000C94BA0062
:100020000C946C000C94A9000C946C000C947F0050
:100030000C946C000C946C000C9491000C946C006B
:100040000C946E000C946C000C946C000C946C007E
:100050000C946C000C946C000C946C000C946C0070
:100060000C946C000C946C000C946C000C946C0060
:100070000C946C000C946C000C946C000C946C0050
:100080000C946C000C946C000C946C000C946C0040
:100090000C946C000C946C000C946C000C946C0030
:1000A0000C946C000C946C000C946C000C946C0020
:1000B0000C946C0011241FBECFEFD8E0DEBFCDBF83
:1000C00021E0A0E0B1E001C01D92A230B207E1F74B
:1000D0000E94D2000C94F8000C9400001F920F9222
:1000E0000FB60F9211248F93809100018F5F809340
:1000F00000018F910F900FBE0F901F9018951F92C7
:100100000F920FB60F9211248F939F9395B180E2B7
:10011000892785B99F918F910F900FBE0F901F90E7
:1001200018951F920F920FB60F9211248F939F93E1
:10013000809100018C3531F49BB181E089278BB926
:10014000109200019F918F910F900FBE0F901F9002
:1001500018951F920F920FB60F9211248F938091D2
:1001600001018F5F809301018F910F900FBE0F905F
:100170001F9018951F920F920FB60F9211248F9314
:100180009F9380910101853231F49BB182E08927F0
:100190008BB9109201019F918F910F900FBE0F901C
:1001A0001F90189580E284B983E08AB990EC90930F
:1001B00080009DE09093810092E090936F009AE719
:1001C0009093890092E19093880022EC24BD95E001
:1001D00095BD80936E009FEF97BD2093B00027E000
:1001E0002093B100809370009093B3007894FFCF78
:0401F000F894FFCFB1
:00000001FF
