S01000006C6162615F345F342E737265635E
S11300000C945A000C946C000C946C000C946C00CE
S11300100C946C000C946C000C946C000C946C00AC
S11300200C946C000C947D000C946C000C946C008B
S11300300C946C000C946C000C946C000C946C008C
S11300400C946C000C946C000C946C000C946C007C
S11300500C946C000C946E000C946C000C946C006A
S11300600C946C000C946C000C946C000C946C005C
S11300700C946C000C946C000C946C000C946C004C
S11300800C946C000C946C000C946C000C946C003C
S11300900C946C000C946C000C946C000C946C002C
S11300A00C946C000C946C000C946C000C946C001C
S11300B00C946C0011241FBECFEFD8E0DEBFCDBF7F
S11300C021E0A0E0B1E001C01D92A230B207E1F747
S11300D00E94FB000C9418010C9400001F920F92D4
S11300E00FB60F9211248F938091790087BD8F9161
S11300F00F900FBE0F901F9018951F920F920FB67E
S11301000F9211242F933F936F937F938F939F9319
S1130110AF93BF93EF93FF9386E08093B2008091F7
S113012000019091010101968830910529F0909386
S113013001018093000116C0109201011092000188
S1130140E4E8F0E0208131813695279536952795AE
S1130150ABE7B4E10E940901969587958093C600A8
S113016011821082FF91EF91BF91AF919F918F9176
S11301707F916F913F912F910F900FBE0F901F9021
S1130180189584B5836484BD85B58B6085BD17BC23
S1130190089587E690E09093C5008093C400E2EC54
S11301A0F0E0808186608083E1ECF0E0808188600B
S11301B08083089580E680937C008FEE80937A009C
S11301C00895E0E8F0E080818083E1E8F0E0808158
S11301D087608083109289001092880081E0809368
S11301E06F000895E1EBF0E080818760808381E017
S11301F080937000089580EC8AB90E94C1000E9427
S1130200C9000E94DA000E94E1000E94F200789482
S1130210FFCFA29FB001B39FC001A39F700D811DAA
S11302201124911DB29F700D811D1124911D0895FB
S1070230F894FFCF6C
S9030000FC
