S00F00006C616261355F332E73726563BE
S11300000C9434000C9446000C9446000C94480064
S11300100C9446000C9464000C9446000C94460026
S11300200C9446000C9446000C9446000C94460034
S11300300C9446000C9446000C9446000C94460024
S11300400C9446000C9446000C9446000C94460014
S11300500C9446000C9446000C9446000C94460004
S11300600C9446000C94460011241FBECFEFD8E038
S1130070DEBFCDBF21E0A0E0B1E001C01D92A330FE
S1130080B207E1F70E9480000C94A2000C940000D7
S11300901F920F920FB60F9211248F939F9380910A
S11300A00201807490E095958795809300012D98C6
S11300B095B180910001892B85B99F918F910F9003
S11300C00FBE0F901F9018951F920F920FB60F92AC
S11300D011248F939F9380910201807490E09595F1
S11300E08795809301012D9895B180910101892B09
S11300F085B99F918F910F900FBE0F901F90189507
S11301001092000178948FEF87B980E284B91AB80D
S113011087E080936800EBE6F0E08081886080836C
S1130120EDE6F0E08081806180838091020188B9EE
S113013088B182958F708BB9809102018F5F809313
S10B01400201F3CFF894FFCF94
S9030000FC
