:100000000C945A000C9464000C9464000C946400EA
:100010000C9464000C9464000C9464000C946400D0
:100020000C9464000C9464000C9464000C946400C0
:100030000C9464000C9464000C9464000C946400B0
:100040000C9464000C9464000C9464000C946400A0
:100050000C9464000C9464000C9464000C94640090
:100060000C9464000C9464000C9464000C94640080
:100070000C9464000C9464000C9464000C94640070
:100080000C9464000C9464000C9464000C94640060
:100090000C9464000C9464000C9464000C94640050
:1000A0000C9464000C9464000C9464000C94640040
:1000B0000C94640011241FBECFEFD8E0DEBFCDBF8B
:1000C0000E9491000C94A6000C94000080E68AB96E
:1000D00084B5836A84BD85B58B6085BD8FEF87BD90
:1000E00081E088BD089587E690E09093C5008093F5
:1000F000C400E2ECF0E0808186608083E1ECF0E017
:10010000808188608083089581E087B9ECE7F0E022
:10011000808180668083EAE7F0E080818E6E808354
:1001200008950E9466000E9473000E9484007894E3
:10013000A9E7B0E0EAE7F0E0C6ECD0E08C9187BD3B
:100140008081806480838C918883F8CFF894FFCF7E
:00000001FF
