S01100006C6162615F746573742E7372656364
S11300000C945A000C9464000C9464000C946400E6
S11300100C9464000C9464000C9464000C946400CC
S11300200C9464000C9464000C9464000C946400BC
S11300300C9464000C9464000C9464000C946400AC
S11300400C9464000C9464000C9464000C9464009C
S11300500C9464000C9464000C9464000C9464008C
S11300600C9464000C9464000C9464000C9464007C
S11300700C9464000C9464000C9464000C9464006C
S11300800C9464000C9464000C9464000C9464005C
S11300900C9464000C9464000C9464000C9464004C
S11300A00C9464000C9464000C9464000C9464003C
S11300B00C94640011241FBECFEFD8E0DEBFCDBF87
S11300C00E9466000C9490000C9400008FEF8AB993
S11300D084B984B5836084BD84B5806484BD85B5EA
S11300E0826085BD8FE787BD85B5887F85BD83E246
S11300F094EF0197F1F700C0000085B5826085BDDB
S113010083E294EF0197F1F700C0000085B58460A5
S113011085BD83E294EF0197F1F700C00000E4CFBE
S1070120F894FFCF7D
S9030000FC
