S01000006C6162615F345F332E737265635F
S11300000C945A000C946C000C946C000C946C00CE
S11300100C946C000C946C000C946C000C946C00AC
S11300200C946C000C946C000C946C000C946C009C
S11300300C946C000C946C000C946C000C946C008C
S11300400C946C000C946C000C946C000C946C007C
S11300500C946C000C946E000C946C000C946C006A
S11300600C946C000C946C000C946C000C946C005C
S11300700C946C000C946C000C946C000C946C004C
S11300800C946C000C946C000C946C000C946C003C
S11300900C946C000C946C000C946C000C946C002C
S11300A00C946C000C946C000C946C000C946C001C
S11300B00C946C0011241FBECFEFD8E0DEBFCDBF7F
S11300C021E0A0E0B1E001C01D92A030B207E1F749
S11300D00E94A1000C94AF000C9400001F920F9298
S11300E00FB60F9211248F938091790087BD8F9161
S11300F00F900FBE0F901F90189580E48AB984E08A
S113010084B984B5836484BD85B58B6085BD17BC13
S1130110089587E690E09093C5008093C400E2ECD4
S1130120F0E0808186608083E1ECF0E0808188608B
S11301308083089580E680937C008FEE80937A001C
S113014008950E947D000E9489000E949A0078947C
S1130150A9E7B0E0E6ECF0E08C918083FDCFF89461
S1050160FFCFCB
S9030000FC
