:100000000C945A000C946C000C946C000C946C00D2
:100010000C946C000C946C000C946C000C946C00B0
:100020000C946C000C946C000C946C000C9480008C
:100030000C946C000C946C000C946C000C946C0090
:100040000C946C000C946C000C946E000C946C007E
:100050000C946C000C946C000C946C000C946C0070
:100060000C946C000C946C000C946C000C946C0060
:100070000C946C000C946C000C946C000C946C0050
:100080000C946C000C946C000C946C000C946C0040
:100090000C946C000C946C000C946C000C946C0030
:1000A0000C946C000C946C000C946C000C946C0020
:1000B0000C946C0011241FBECFEFD8E0DEBFCDBF83
:1000C00021E0A0E0B1E001C01D92A130B207E1F74C
:1000D0000E94B5000C94F2000C9400001F920F9245
:1000E0000FB60F9211248F939F9395B184E08927C7
:1000F00085B99F918F910F900FBE0F901F9018950B
:100100001F920F920FB60F9211248F939F93EF932C
:10011000FF9380910001843B58F0E0EBF0E0808198
:10012000836A80838FE08093B1001092B40012C084
:10013000E0EBF0E08081836A80838FE08093B10000
:10014000809100019BEA899F812D112486958695D7
:100150008093B40010920001FF91EF919F918F91D5
:100160000F900FBE0F901F9018958CEF8AB99FEFDC
:1001700094B9E0E8F0E08081806C8083E1E8F0E011
:1001800080818D608083EFE6F0E0808182608083F3
:100190002CE231E03093890020938800E0EBF0E01E
:1001A0008081836A80838FE08093B1009093B30055
:1001B00087E690E09093C5008093C400E1ECF0E006
:1001C000808188648083808180698083E2ECF0E0B4
:1001D0008081866080837894E6ECF0E08081809373
:0801E0000001FCCFF894FFCFF1
:00000001FF
