S00F00006C616261375F352E73726563BA
S11300000C945A000C9464000C9464000C946400E6
S11300100C9464000C9464000C9464000C946400CC
S11300200C9464000C9464000C9464000C946400BC
S11300300C9464000C9464000C9464000C946400AC
S11300400C9464000C9464000C9464000C9464009C
S11300500C9464000C9466000C9464000C9464008A
S11300600C9464000C9464000C9464000C9464007C
S11300700C9464000C9464000C9464000C9464006C
S11300800C9464000C9464000C9464000C9464005C
S11300900C9464000C9464000C9464000C9464004C
S11300A00C9464000C9464000C9464000C9464003C
S11300B00C94640011241FBECFEFD8E0DEBFCDBF87
S11300C00E9476000C9492000C9400001F920F92F0
S11300D00FB60F9211248F93809179008093C600FC
S11300E08F910F900FBE0F901F90189587E690E0A8
S11300F09093C5008093C400ECE7F0E080818066B3
S11301008083EAE7F0E080818F6C8083E1ECF0E0AB
S1130110808188608083E2ECF0E080818660808367
S10B01207894FFCFF894FFCF9F
S9030000FC
