S01700006C6162615F74687265655F666F75722E73726563EB
S11300000C945A000C946C000C946C000C946C00CE
S11300100C946C000C946C000C946C000C946C00AC
S11300200C946C000C946C000C946E000C946C009A
S11300300C946C000C946C000C94DA000C94E800A2
S11300400C946C000C946C000C946C000C946C007C
S11300500C946C000C946C000C946C000C946C006C
S11300600C946C000C946C000C946C000C946C005C
S11300700C946C000C946C000C946C000C946C004C
S11300800C946C000C946C000C946C000C946C003C
S11300900C946C000C946C000C946C000C946C002C
S11300A00C946C000C946C000C946C000C946C001C
S11300B00C946C0011241FBECFEFD8E0DEBFCDBF7F
S11300C021E0A0E0B1E001C01D92A230B207E1F747
S11300D00E94F3000C9403010C9400001F920F92F1
S11300E00FB60F9211242F933F934F935F936F9307
S11300F07F938F939F93809186009091870024E44F
S113010020938100209100013091010128173907C3
S113011028F4AC01421B530B9A0107C0AC014150B7
S11301205109BA01621B730B9B014091C00045FF4A
S11301300EC067E571E0269FA001279F500D369FF2
S1130140500D11249A01369527952093C60026E078
S113015020936E0090930101809300019F918F91F1
S11301607F916F915F914F913F912F910F900FBEAF
S11301700F901F90189584B5816B84BD85B58260FE
S113018085BD86E080936E008FEF87BD8AEE88BDC3
S1130190089587E690E09093C5008093C400E2EC54
S11301A0F0E0808186608083E1ECF0E0808188600B
S11301B0808308951F920F920FB60F9211248F938C
S11301C082E085B98F910F900FBE0F901F90189504
S11301D01F920F920FB60F92112415B80F900FBEF5
S11301E00F901F90189582E084B98FEF87B984EC43
S11301F08093810080E280936F000E94BB000E9484
S10D0200C9007894FFCFF894FFCFF3
S9030000FC
