S01200006C6162615F345F345F312E73726563CC
S11300000C945A000C9464000C9464000C946400E6
S11300100C9464000C9464000C9464000C946400CC
S11300200C9464000C9464000C9464000C946400BC
S11300300C9464000C9464000C9464000C946400AC
S11300400C9464000C9464000C9464000C9464009C
S11300500C9464000C9466000C9464000C9464008A
S11300600C9464000C9464000C9464000C9464007C
S11300700C9464000C9464000C9464000C9464006C
S11300800C9464000C9464000C9464000C9464005C
S11300900C9464000C9464000C9464000C9464004C
S11300A00C9464000C9464000C9464000C9464003C
S11300B00C94640011241FBECFEFD8E0DEBFCDBF87
S11300C00E9497000C94A5000C9400001F920F92BC
S11300D00FB60F9211248F938091790087BD8F9171
S11300E00F900FBE0F901F90189580E48AB984B5C5
S11300F0836484BD85B58B6085BD17BC089587E690
S113010090E09093C5008093C400E2ECF0E080811D
S113011086608083E1ECF0E08081886080830895CC
S113012080E680937C008FEE80937A0008950E948D
S113013075000E947F000E9490007894A9E7B0E0C7
S1110140E6ECF0E08C918083FDCFF894FFCFC5
S9030000FC
